{
  "contractName": "VaultBase",
  "abi": [
    {
      "inputs": [
        {
          "internalType": "address",
          "name": "_token",
          "type": "address"
        }
      ],
      "stateMutability": "nonpayable",
      "type": "constructor"
    },
    {
      "anonymous": false,
      "inputs": [
        {
          "indexed": false,
          "internalType": "address",
          "name": "from",
          "type": "address"
        },
        {
          "indexed": false,
          "internalType": "address",
          "name": "to",
          "type": "address"
        },
        {
          "indexed": false,
          "internalType": "uint256",
          "name": "amount",
          "type": "uint256"
        },
        {
          "indexed": false,
          "internalType": "uint256",
          "name": "date",
          "type": "uint256"
        },
        {
          "indexed": false,
          "internalType": "uint256",
          "name": "nonce",
          "type": "uint256"
        },
        {
          "indexed": false,
          "internalType": "bytes",
          "name": "signature",
          "type": "bytes"
        },
        {
          "indexed": true,
          "internalType": "enum VaultBase.Step",
          "name": "step",
          "type": "uint8"
        }
      ],
      "name": "Transfer",
      "type": "event"
    },
    {
      "inputs": [],
      "name": "admin",
      "outputs": [
        {
          "internalType": "address",
          "name": "",
          "type": "address"
        }
      ],
      "stateMutability": "view",
      "type": "function"
    },
    {
      "inputs": [
        {
          "internalType": "address",
          "name": "",
          "type": "address"
        },
        {
          "internalType": "uint256",
          "name": "",
          "type": "uint256"
        }
      ],
      "name": "processedNonces",
      "outputs": [
        {
          "internalType": "bool",
          "name": "",
          "type": "bool"
        }
      ],
      "stateMutability": "view",
      "type": "function"
    },
    {
      "inputs": [],
      "name": "token",
      "outputs": [
        {
          "internalType": "contract IToken",
          "name": "",
          "type": "address"
        }
      ],
      "stateMutability": "view",
      "type": "function"
    },
    {
      "inputs": [
        {
          "internalType": "address",
          "name": "to",
          "type": "address"
        },
        {
          "internalType": "uint256",
          "name": "amount",
          "type": "uint256"
        },
        {
          "internalType": "uint256",
          "name": "nonce",
          "type": "uint256"
        },
        {
          "internalType": "bytes",
          "name": "signature",
          "type": "bytes"
        }
      ],
      "name": "lock",
      "outputs": [],
      "stateMutability": "payable",
      "type": "function"
    },
    {
      "inputs": [
        {
          "internalType": "address",
          "name": "from",
          "type": "address"
        },
        {
          "internalType": "address",
          "name": "to",
          "type": "address"
        },
        {
          "internalType": "uint256",
          "name": "amount",
          "type": "uint256"
        },
        {
          "internalType": "uint256",
          "name": "nonce",
          "type": "uint256"
        },
        {
          "internalType": "bytes",
          "name": "signature",
          "type": "bytes"
        }
      ],
      "name": "unlock",
      "outputs": [],
      "stateMutability": "nonpayable",
      "type": "function"
    }
  ],
  "bytecode": "0x608060405234801561001057600080fd5b50604051610fe0380380610fe0833981810160405281019061003291906100ce565b336000806101000a81548173ffffffffffffffffffffffffffffffffffffffff021916908373ffffffffffffffffffffffffffffffffffffffff16021790555080600160006101000a81548173ffffffffffffffffffffffffffffffffffffffff021916908373ffffffffffffffffffffffffffffffffffffffff16021790555050610140565b6000815190506100c881610129565b92915050565b6000602082840312156100e057600080fd5b60006100ee848285016100b9565b91505092915050565b600061010282610109565b9050919050565b600073ffffffffffffffffffffffffffffffffffffffff82169050919050565b610132816100f7565b811461013d57600080fd5b50565b610e918061014f6000396000f3fe60806040526004361061004a5760003560e01c806312482d101461004f5780637cc702401461006b578063f4717db7146100a8578063f851a440146100d1578063fc0c546a146100fc575b600080fd5b610069600480360381019061006491906108c1565b610127565b005b34801561007757600080fd5b50610092600480360381019061008d9190610885565b6102c4565b60405161009f9190610c3d565b60405180910390f35b3480156100b457600080fd5b506100cf60048036038101906100ca91906107f3565b6102f3565b005b3480156100dd57600080fd5b506100e661064d565b6040516100f39190610b81565b60405180910390f35b34801561010857600080fd5b50610111610671565b60405161011e9190610c9d565b60405180910390f35b60001515600260003373ffffffffffffffffffffffffffffffffffffffff1673ffffffffffffffffffffffffffffffffffffffff168152602001908152602001600020600085815260200190815260200160002060009054906101000a900460ff161515146101cb576040517f08c379a00000000000000000000000000000000000000000000000000000000081526004016101c290610cb8565b60405180910390fd5b8334146101d757600080fd5b6001600260003373ffffffffffffffffffffffffffffffffffffffff1673ffffffffffffffffffffffffffffffffffffffff168152602001908152602001600020600085815260200190815260200160002060006101000a81548160ff0219169083151502179055506000600181111561027a577f4e487b7100000000000000000000000000000000000000000000000000000000600052602160045260246000fd5b7fce5a9b86edd3b998c3948a7934c7ecf7dba73c4c5bcf56cf576bca4aa2beeb30338787428888886040516102b59796959493929190610bd3565b60405180910390a25050505050565b60026020528160005260406000206020528060005260406000206000915091509054906101000a900460ff1681565b600061032a8787878760405160200161030f9493929190610b0d565b60405160208183030381529060405280519060200120610697565b90508673ffffffffffffffffffffffffffffffffffffffff166103918285858080601f016020809104026020016040519081016040528093929190818152602001838380828437600081840152601f19601f820116905080830192505050505050506106c7565b73ffffffffffffffffffffffffffffffffffffffff16146103e7576040517f08c379a00000000000000000000000000000000000000000000000000000000081526004016103de90610cf8565b60405180910390fd5b60001515600260008973ffffffffffffffffffffffffffffffffffffffff1673ffffffffffffffffffffffffffffffffffffffff168152602001908152602001600020600086815260200190815260200160002060009054906101000a900460ff1615151461048b576040517f08c379a000000000000000000000000000000000000000000000000000000000815260040161048290610cb8565b60405180910390fd5b844710156104ce576040517f08c379a00000000000000000000000000000000000000000000000000000000081526004016104c590610cd8565b60405180910390fd5b6001600260008973ffffffffffffffffffffffffffffffffffffffff1673ffffffffffffffffffffffffffffffffffffffff168152602001908152602001600020600086815260200190815260200160002060006101000a81548160ff021916908315150217905550600160009054906101000a900473ffffffffffffffffffffffffffffffffffffffff1673ffffffffffffffffffffffffffffffffffffffff166323b872dd3088886040518463ffffffff1660e01b815260040161059693929190610b9c565b600060405180830381600087803b1580156105b057600080fd5b505af11580156105c4573d6000803e3d6000fd5b50505050600180811115610601577f4e487b7100000000000000000000000000000000000000000000000000000000600052602160045260246000fd5b7fce5a9b86edd3b998c3948a7934c7ecf7dba73c4c5bcf56cf576bca4aa2beeb308888884289898960405161063c9796959493929190610bd3565b60405180910390a250505050505050565b60008054906101000a900473ffffffffffffffffffffffffffffffffffffffff1681565b600160009054906101000a900473ffffffffffffffffffffffffffffffffffffffff1681565b6000816040516020016106aa9190610b5b565b604051602081830303815290604052805190602001209050919050565b6000806000806106d68561073c565b809350819450829550505050600186848484604051600081526020016040526040516107059493929190610c58565b6020604051602081039080840390855afa158015610727573d6000803e3d6000fd5b50505060206040510351935050505092915050565b6000806000604184511461074f57600080fd5b60008060006020870151925060408701519150606087015160001a90508083839550955095505050509193909250565b60008135905061078e81610e2d565b92915050565b60008083601f8401126107a657600080fd5b8235905067ffffffffffffffff8111156107bf57600080fd5b6020830191508360018202830111156107d757600080fd5b9250929050565b6000813590506107ed81610e44565b92915050565b60008060008060008060a0878903121561080c57600080fd5b600061081a89828a0161077f565b965050602061082b89828a0161077f565b955050604061083c89828a016107de565b945050606061084d89828a016107de565b935050608087013567ffffffffffffffff81111561086a57600080fd5b61087689828a01610794565b92509250509295509295509295565b6000806040838503121561089857600080fd5b60006108a68582860161077f565b92505060206108b7858286016107de565b9150509250929050565b6000806000806000608086880312156108d957600080fd5b60006108e78882890161077f565b95505060206108f8888289016107de565b9450506040610909888289016107de565b935050606086013567ffffffffffffffff81111561092657600080fd5b61093288828901610794565b92509250509295509295909350565b61094a81610d45565b82525050565b61096161095c82610d45565b610dd7565b82525050565b61097081610d57565b82525050565b61097f81610d63565b82525050565b61099661099182610d63565b610de9565b82525050565b60006109a88385610d18565b93506109b5838584610dc8565b6109be83610e0f565b840190509392505050565b6109d281610da4565b82525050565b60006109e5601c83610d3a565b91507f19457468657265756d205369676e6564204d6573736167653a0a3332000000006000830152601c82019050919050565b6000610a25601a83610d29565b91507f7472616e7366657220616c72656164792070726f6365737365640000000000006000830152602082019050919050565b6000610a65601183610d29565b91507f6e6f7420656e6f75676820746f6b656e730000000000000000000000000000006000830152602082019050919050565b6000610aa5600f83610d29565b91507f77726f6e67207369676e617475726500000000000000000000000000000000006000830152602082019050919050565b610ae181610d8d565b82525050565b610af8610af382610d8d565b610e05565b82525050565b610b0781610d97565b82525050565b6000610b198287610950565b601482019150610b298286610950565b601482019150610b398285610ae7565b602082019150610b498284610ae7565b60208201915081905095945050505050565b6000610b66826109d8565b9150610b728284610985565b60208201915081905092915050565b6000602082019050610b966000830184610941565b92915050565b6000606082019050610bb16000830186610941565b610bbe6020830185610941565b610bcb6040830184610ad8565b949350505050565b600060c082019050610be8600083018a610941565b610bf56020830189610941565b610c026040830188610ad8565b610c0f6060830187610ad8565b610c1c6080830186610ad8565b81810360a0830152610c2f81848661099c565b905098975050505050505050565b6000602082019050610c526000830184610967565b92915050565b6000608082019050610c6d6000830187610976565b610c7a6020830186610afe565b610c876040830185610976565b610c946060830184610976565b95945050505050565b6000602082019050610cb260008301846109c9565b92915050565b60006020820190508181036000830152610cd181610a18565b9050919050565b60006020820190508181036000830152610cf181610a58565b9050919050565b60006020820190508181036000830152610d1181610a98565b9050919050565b600082825260208201905092915050565b600082825260208201905092915050565b600081905092915050565b6000610d5082610d6d565b9050919050565b60008115159050919050565b6000819050919050565b600073ffffffffffffffffffffffffffffffffffffffff82169050919050565b6000819050919050565b600060ff82169050919050565b6000610daf82610db6565b9050919050565b6000610dc182610d6d565b9050919050565b82818337600083830152505050565b6000610de282610df3565b9050919050565b6000819050919050565b6000610dfe82610e20565b9050919050565b6000819050919050565b6000601f19601f8301169050919050565b60008160601b9050919050565b610e3681610d45565b8114610e4157600080fd5b50565b610e4d81610d8d565b8114610e5857600080fd5b5056fea2646970667358221220fcc76f1335e744401b7500b6b5b57eee20545c672511b03635e179ad9f12687864736f6c63430008000033",
  "immutableReferences": {},
  "source": "pragma solidity ^0.8.0;\n\nimport '@openzeppelin/contracts/token/ERC20/IERC20.sol';\nimport './Itoken.sol';\n\ncontract VaultBase {\n\n  address public admin;\n  IToken public token;\n  mapping(address => mapping(uint => bool)) public processedNonces;\n\n  enum Step { Lock, Unlock }\n  event Transfer(\n    address from,\n    address to,\n    uint amount,\n    uint date,\n    uint nonce,\n    bytes signature,\n    Step indexed step\n  );\n\n  constructor(address _token) {\n    admin = msg.sender;\n    token = IToken(_token);\n  }\n\n  function lock(address to, uint amount, uint nonce, bytes calldata signature) payable external {\n    require(processedNonces[msg.sender][nonce] == false, 'transfer already processed');\n    require(msg.value == amount);\n    processedNonces[msg.sender][nonce] = true;\n    emit Transfer(\n      msg.sender,\n      to,\n      amount,\n      block.timestamp,\n      nonce,\n      signature,\n      Step.Lock\n    );\n  }\n\n  function unlock(\n    address from, \n    address to, \n    uint amount, \n    uint nonce,\n    bytes calldata signature\n  ) external {\n    bytes32 message = prefixed(keccak256(abi.encodePacked(\n      from, \n      to, \n      amount,\n      nonce\n    )));\n    require(recoverSigner(message, signature) == from , 'wrong signature');\n    require(processedNonces[from][nonce] == false, 'transfer already processed');\n    require(address(this).balance >= amount, 'not enough tokens');\n    processedNonces[from][nonce] = true;\n    token.transferFrom(address(this), to, amount);\n    emit Transfer(\n      from,\n      to,\n      amount,\n      block.timestamp,\n      nonce,\n      signature,\n      Step.Unlock\n    );\n  }\n\n  function prefixed(bytes32 hash) internal pure returns (bytes32) {\n    return keccak256(abi.encodePacked(\n      '\\x19Ethereum Signed Message:\\n32', \n      hash\n    ));\n  }\n\n  function recoverSigner(bytes32 message, bytes memory sig)\n    internal\n    pure\n    returns (address)\n  {\n    uint8 v;\n    bytes32 r;\n    bytes32 s;\n  \n    (v, r, s) = splitSignature(sig);\n  \n    return ecrecover(message, v, r, s);\n  }\n\n  function splitSignature(bytes memory sig)\n    internal\n    pure\n    returns (uint8, bytes32, bytes32)\n  {\n    require(sig.length == 65);\n  \n    bytes32 r;\n    bytes32 s;\n    uint8 v;\n  \n    assembly {\n        // first 32 bytes, after the length prefix\n        r := mload(add(sig, 32))\n        // second 32 bytes\n        s := mload(add(sig, 64))\n        // final byte (first byte of the next 32 bytes)\n        v := byte(0, mload(add(sig, 96)))\n    }\n  \n    return (v, r, s);\n  }\n}\n",
  "sourcePath": "C:\\Users\\tosch\\Desktop\\defi task\\317-eth-bsc-decentralized-bridge\\contracts\\VaultBase.sol",
  "compiler": {
    "name": "solc",
    "version": "0.8.0+commit.c7dfd78e.Emscripten.clang"
  },
  "schemaVersion": "3.4.2",
  "updatedAt": "2021-07-26T13:24:50.402Z",
  "devdoc": {
    "kind": "dev",
    "methods": {},
    "version": 1
  },
  "userdoc": {
    "kind": "user",
    "methods": {},
    "version": 1
  }
}